{
  "contractName": "SolnSquareVerifier",
  "abi": [
    {
      "constant": true,
      "inputs": [
        {
          "name": "interfaceId",
          "type": "bytes4"
        }
      ],
      "name": "supportsInterface",
      "outputs": [
        {
          "name": "",
          "type": "bool"
        }
      ],
      "payable": false,
      "stateMutability": "view",
      "type": "function"
    },
    {
      "constant": true,
      "inputs": [],
      "name": "name",
      "outputs": [
        {
          "name": "",
          "type": "string"
        }
      ],
      "payable": false,
      "stateMutability": "view",
      "type": "function"
    },
    {
      "constant": true,
      "inputs": [
        {
          "name": "tokenId",
          "type": "uint256"
        }
      ],
      "name": "getApproved",
      "outputs": [
        {
          "name": "",
          "type": "address"
        }
      ],
      "payable": false,
      "stateMutability": "view",
      "type": "function"
    },
    {
      "constant": false,
      "inputs": [
        {
          "name": "to",
          "type": "address"
        },
        {
          "name": "tokenId",
          "type": "uint256"
        }
      ],
      "name": "approve",
      "outputs": [],
      "payable": false,
      "stateMutability": "nonpayable",
      "type": "function"
    },
    {
      "constant": true,
      "inputs": [],
      "name": "totalSupply",
      "outputs": [
        {
          "name": "",
          "type": "uint256"
        }
      ],
      "payable": false,
      "stateMutability": "view",
      "type": "function"
    },
    {
      "constant": false,
      "inputs": [
        {
          "name": "from",
          "type": "address"
        },
        {
          "name": "to",
          "type": "address"
        },
        {
          "name": "tokenId",
          "type": "uint256"
        }
      ],
      "name": "transferFrom",
      "outputs": [],
      "payable": false,
      "stateMutability": "nonpayable",
      "type": "function"
    },
    {
      "constant": true,
      "inputs": [
        {
          "name": "_myid",
          "type": "bytes32"
        },
        {
          "name": "_result",
          "type": "string"
        }
      ],
      "name": "__callback",
      "outputs": [],
      "payable": false,
      "stateMutability": "pure",
      "type": "function"
    },
    {
      "constant": true,
      "inputs": [
        {
          "name": "owner",
          "type": "address"
        },
        {
          "name": "index",
          "type": "uint256"
        }
      ],
      "name": "tokenOfOwnerByIndex",
      "outputs": [
        {
          "name": "",
          "type": "uint256"
        }
      ],
      "payable": false,
      "stateMutability": "view",
      "type": "function"
    },
    {
      "constant": true,
      "inputs": [
        {
          "name": "_myid",
          "type": "bytes32"
        },
        {
          "name": "_result",
          "type": "string"
        },
        {
          "name": "_proof",
          "type": "bytes"
        }
      ],
      "name": "__callback",
      "outputs": [],
      "payable": false,
      "stateMutability": "pure",
      "type": "function"
    },
    {
      "constant": false,
      "inputs": [
        {
          "name": "_from",
          "type": "address"
        },
        {
          "name": "_tokenId",
          "type": "uint256"
        }
      ],
      "name": "mint",
      "outputs": [
        {
          "name": "",
          "type": "bool"
        }
      ],
      "payable": false,
      "stateMutability": "nonpayable",
      "type": "function"
    },
    {
      "constant": false,
      "inputs": [
        {
          "name": "from",
          "type": "address"
        },
        {
          "name": "to",
          "type": "address"
        },
        {
          "name": "tokenId",
          "type": "uint256"
        }
      ],
      "name": "safeTransferFrom",
      "outputs": [],
      "payable": false,
      "stateMutability": "nonpayable",
      "type": "function"
    },
    {
      "constant": true,
      "inputs": [],
      "name": "getContractOwner",
      "outputs": [
        {
          "name": "",
          "type": "address"
        }
      ],
      "payable": false,
      "stateMutability": "view",
      "type": "function"
    },
    {
      "constant": true,
      "inputs": [
        {
          "name": "index",
          "type": "uint256"
        }
      ],
      "name": "tokenByIndex",
      "outputs": [
        {
          "name": "",
          "type": "uint256"
        }
      ],
      "payable": false,
      "stateMutability": "view",
      "type": "function"
    },
    {
      "constant": false,
      "inputs": [
        {
          "name": "_status",
          "type": "bool"
        }
      ],
      "name": "setStatus",
      "outputs": [],
      "payable": false,
      "stateMutability": "nonpayable",
      "type": "function"
    },
    {
      "constant": true,
      "inputs": [
        {
          "name": "tokenId",
          "type": "uint256"
        }
      ],
      "name": "ownerOf",
      "outputs": [
        {
          "name": "",
          "type": "address"
        }
      ],
      "payable": false,
      "stateMutability": "view",
      "type": "function"
    },
    {
      "constant": true,
      "inputs": [
        {
          "name": "owner",
          "type": "address"
        }
      ],
      "name": "balanceOf",
      "outputs": [
        {
          "name": "",
          "type": "uint256"
        }
      ],
      "payable": false,
      "stateMutability": "view",
      "type": "function"
    },
    {
      "constant": true,
      "inputs": [],
      "name": "symbol",
      "outputs": [
        {
          "name": "",
          "type": "string"
        }
      ],
      "payable": false,
      "stateMutability": "view",
      "type": "function"
    },
    {
      "constant": false,
      "inputs": [
        {
          "name": "to",
          "type": "address"
        },
        {
          "name": "approved",
          "type": "bool"
        }
      ],
      "name": "setApprovalForAll",
      "outputs": [],
      "payable": false,
      "stateMutability": "nonpayable",
      "type": "function"
    },
    {
      "constant": false,
      "inputs": [
        {
          "name": "from",
          "type": "address"
        },
        {
          "name": "to",
          "type": "address"
        },
        {
          "name": "tokenId",
          "type": "uint256"
        },
        {
          "name": "_data",
          "type": "bytes"
        }
      ],
      "name": "safeTransferFrom",
      "outputs": [],
      "payable": false,
      "stateMutability": "nonpayable",
      "type": "function"
    },
    {
      "constant": true,
      "inputs": [
        {
          "name": "tokenId",
          "type": "uint256"
        }
      ],
      "name": "tokenURI",
      "outputs": [
        {
          "name": "",
          "type": "string"
        }
      ],
      "payable": false,
      "stateMutability": "view",
      "type": "function"
    },
    {
      "constant": true,
      "inputs": [
        {
          "name": "owner",
          "type": "address"
        },
        {
          "name": "operator",
          "type": "address"
        }
      ],
      "name": "isApprovedForAll",
      "outputs": [
        {
          "name": "",
          "type": "bool"
        }
      ],
      "payable": false,
      "stateMutability": "view",
      "type": "function"
    },
    {
      "constant": false,
      "inputs": [
        {
          "name": "newOwner",
          "type": "address"
        }
      ],
      "name": "transferOwnership",
      "outputs": [],
      "payable": false,
      "stateMutability": "nonpayable",
      "type": "function"
    },
    {
      "constant": false,
      "inputs": [
        {
          "name": "a",
          "type": "uint256[2]"
        },
        {
          "name": "a_p",
          "type": "uint256[2]"
        },
        {
          "name": "b",
          "type": "uint256[2][2]"
        },
        {
          "name": "b_p",
          "type": "uint256[2]"
        },
        {
          "name": "c",
          "type": "uint256[2]"
        },
        {
          "name": "c_p",
          "type": "uint256[2]"
        },
        {
          "name": "h",
          "type": "uint256[2]"
        },
        {
          "name": "k",
          "type": "uint256[2]"
        },
        {
          "name": "input",
          "type": "uint256[2]"
        }
      ],
      "name": "verifyTx",
      "outputs": [
        {
          "name": "r",
          "type": "bool"
        }
      ],
      "payable": false,
      "stateMutability": "nonpayable",
      "type": "function"
    },
    {
      "anonymous": false,
      "inputs": [
        {
          "indexed": false,
          "name": "from",
          "type": "address"
        },
        {
          "indexed": false,
          "name": "id",
          "type": "uint256"
        },
        {
          "indexed": false,
          "name": "value",
          "type": "bytes32"
        }
      ],
      "name": "NewSolution",
      "type": "event"
    },
    {
      "anonymous": false,
      "inputs": [
        {
          "indexed": false,
          "name": "s",
          "type": "string"
        }
      ],
      "name": "Verified",
      "type": "event"
    },
    {
      "anonymous": false,
      "inputs": [
        {
          "indexed": true,
          "name": "from",
          "type": "address"
        },
        {
          "indexed": true,
          "name": "to",
          "type": "address"
        },
        {
          "indexed": true,
          "name": "tokenId",
          "type": "uint256"
        }
      ],
      "name": "Transfer",
      "type": "event"
    },
    {
      "anonymous": false,
      "inputs": [
        {
          "indexed": true,
          "name": "owner",
          "type": "address"
        },
        {
          "indexed": true,
          "name": "approved",
          "type": "address"
        },
        {
          "indexed": true,
          "name": "tokenId",
          "type": "uint256"
        }
      ],
      "name": "Approval",
      "type": "event"
    },
    {
      "anonymous": false,
      "inputs": [
        {
          "indexed": true,
          "name": "owner",
          "type": "address"
        },
        {
          "indexed": true,
          "name": "operator",
          "type": "address"
        },
        {
          "indexed": false,
          "name": "approved",
          "type": "bool"
        }
      ],
      "name": "ApprovalForAll",
      "type": "event"
    },
    {
      "anonymous": false,
      "inputs": [
        {
          "indexed": false,
          "name": "newOwner",
          "type": "address"
        }
      ],
      "name": "Paused",
      "type": "event"
    },
    {
      "anonymous": false,
      "inputs": [
        {
          "indexed": false,
          "name": "newOwner",
          "type": "address"
        }
      ],
      "name": "Unpaused",
      "type": "event"
    },
    {
      "anonymous": false,
      "inputs": [
        {
          "indexed": false,
          "name": "newOwner",
          "type": "address"
        }
      ],
      "name": "OwnerChanged",
      "type": "event"
    },
    {
      "constant": false,
      "inputs": [
        {
          "name": "_from",
          "type": "address"
        },
        {
          "name": "_tokenId",
          "type": "uint256"
        },
        {
          "name": "a",
          "type": "uint256[2]"
        },
        {
          "name": "a_p",
          "type": "uint256[2]"
        },
        {
          "name": "b",
          "type": "uint256[2][2]"
        },
        {
          "name": "b_p",
          "type": "uint256[2]"
        },
        {
          "name": "c",
          "type": "uint256[2]"
        },
        {
          "name": "c_p",
          "type": "uint256[2]"
        },
        {
          "name": "h",
          "type": "uint256[2]"
        },
        {
          "name": "k",
          "type": "uint256[2]"
        },
        {
          "name": "input",
          "type": "uint256[2]"
        }
      ],
      "name": "mintToken",
      "outputs": [],
      "payable": false,
      "stateMutability": "nonpayable",
      "type": "function"
    }
  ],
  "bytecode": "0x60806040526040805190810160405280601481526020017f5265616c204573746174652045786368616e67650000000000000000000000008152506040805190810160405280600381526020017f5245450000000000000000000000000000000000000000000000000000000000815250606060405190810160405280603f815260200162005750603f9139620000a53362000207640100000000026401000000009004565b60008060146101000a81548160ff021916908315150217905550620000fc6301ffc9a77c010000000000000000000000000000000000000000000000000000000002620003ec640100000000026401000000009004565b620001396380ac58cd7c010000000000000000000000000000000000000000000000000000000002620003ec640100000000026401000000009004565b6200017663780e9d637c010000000000000000000000000000000000000000000000000000000002620003ec640100000000026401000000009004565b82600f90805190602001906200018e929190620004aa565b508160109080519060200190620001a7929190620004aa565b508060119080519060200190620001c0929190620004aa565b50620001fe635b5e139f7c010000000000000000000000000000000000000000000000000000000002620003ec640100000000026401000000009004565b50505062000559565b3373ffffffffffffffffffffffffffffffffffffffff166000809054906101000a900473ffffffffffffffffffffffffffffffffffffffff1673ffffffffffffffffffffffffffffffffffffffff161480620002b05750600073ffffffffffffffffffffffffffffffffffffffff166000809054906101000a900473ffffffffffffffffffffffffffffffffffffffff1673ffffffffffffffffffffffffffffffffffffffff16145b151562000325576040517f08c379a000000000000000000000000000000000000000000000000000000000815260040180806020018281038252601c8152602001807f43616c6c6572206973206e6f7420636f6e7472616374206f776e65720000000081525060200191505060405180910390fd5b806000806101000a81548173ffffffffffffffffffffffffffffffffffffffff021916908373ffffffffffffffffffffffffffffffffffffffff1602179055507fa2ea9883a321a3e97b8266c2b078bfeec6d50c711ed71f874a90d500ae2eaf366000809054906101000a900473ffffffffffffffffffffffffffffffffffffffff16604051808273ffffffffffffffffffffffffffffffffffffffff1673ffffffffffffffffffffffffffffffffffffffff16815260200191505060405180910390a150565b63ffffffff7c010000000000000000000000000000000000000000000000000000000002817bffffffffffffffffffffffffffffffffffffffffffffffffffffffff1916141515156200043e57600080fd5b6001806000837bffffffffffffffffffffffffffffffffffffffffffffffffffffffff19167bffffffffffffffffffffffffffffffffffffffffffffffffffffffff1916815260200190815260200160002060006101000a81548160ff02191690831515021790555050565b828054600181600116156101000203166002900490600052602060002090601f016020900481019282601f10620004ed57805160ff19168380011785556200051e565b828001600101855582156200051e579182015b828111156200051d57825182559160200191906001019062000500565b5b5090506200052d919062000531565b5090565b6200055691905b808211156200055257600081600090555060010162000538565b5090565b90565b6151e780620005696000396000f3fe608060405234801561001057600080fd5b5060043610610175576000357c010000000000000000000000000000000000000000000000000000000090048063442890d5116100e0578063a22cb46511610099578063a22cb46514610bd6578063b88d4fde14610c26578063c87b56dd14610d2b578063e985e9c514610dd2578063f2fde38b14610e4e578063fe01ff6214610e9257610175565b8063442890d5146109d15780634f6ccce714610a1b5780635c40f6f414610a5d5780636352211e14610a8d57806370a0823114610afb57806395d89b4114610b5357610175565b806327dc297e1161013257806327dc297e146103aa5780632f745c591461046f5780632f89bff8146104d157806338bbfa50146107a157806340c10f19146108fd57806342842e0e1461096357610175565b806301ffc9a71461017a57806306fdde03146101df578063081812fc14610262578063095ea7b3146102d057806318160ddd1461031e57806323b872dd1461033c575b600080fd5b6101c56004803603602081101561019057600080fd5b8101908080357bffffffffffffffffffffffffffffffffffffffffffffffffffffffff19169060200190929190505050611150565b604051808215151515815260200191505060405180910390f35b6101e76111b8565b6040518080602001828103825283818151815260200191508051906020019080838360005b8381101561022757808201518184015260208101905061020c565b50505050905090810190601f1680156102545780820380516001836020036101000a031916815260200191505b509250505060405180910390f35b61028e6004803603602081101561027857600080fd5b810190808035906020019092919050505061125a565b604051808273ffffffffffffffffffffffffffffffffffffffff1673ffffffffffffffffffffffffffffffffffffffff16815260200191505060405180910390f35b61031c600480360360408110156102e657600080fd5b81019080803573ffffffffffffffffffffffffffffffffffffffff16906020019092919080359060200190929190505050611314565b005b61032661150f565b6040518082815260200191505060405180910390f35b6103a86004803603606081101561035257600080fd5b81019080803573ffffffffffffffffffffffffffffffffffffffff169060200190929190803573ffffffffffffffffffffffffffffffffffffffff1690602001909291908035906020019092919050505061151c565b005b61046d600480360360408110156103c057600080fd5b8101908080359060200190929190803590602001906401000000008111156103e757600080fd5b8201836020820111156103f957600080fd5b8035906020019184600183028401116401000000008311171561041b57600080fd5b91908080601f016020809104026020016040519081016040528093929190818152602001838380828437600081840152601f19601f8201169050808301925050505050505091929192905050506115aa565b005b6104bb6004803603604081101561048557600080fd5b81019080803573ffffffffffffffffffffffffffffffffffffffff169060200190929190803590602001909291905050506115ed565b6040518082815260200191505060405180910390f35b61079f60048036036102c08110156104e857600080fd5b81019080803573ffffffffffffffffffffffffffffffffffffffff1690602001909291908035906020019092919080604001906002806020026040519081016040528092919082600260200280828437600081840152601f19601f820116905080830192505050505050919291929080604001906002806020026040519081016040528092919082600260200280828437600081840152601f19601f82011690508083019250505050505091929192908060800190600280602002604051908101604052809291906000905b82821015610608578382604002016002806020026040519081016040528092919082600260200280828437600081840152601f19601f820116905080830192505050505050815260200190600101906105b4565b50505050919291929080604001906002806020026040519081016040528092919082600260200280828437600081840152601f19601f820116905080830192505050505050919291929080604001906002806020026040519081016040528092919082600260200280828437600081840152601f19601f820116905080830192505050505050919291929080604001906002806020026040519081016040528092919082600260200280828437600081840152601f19601f820116905080830192505050505050919291929080604001906002806020026040519081016040528092919082600260200280828437600081840152601f19601f820116905080830192505050505050919291929080604001906002806020026040519081016040528092919082600260200280828437600081840152601f19601f820116905080830192505050505050919291929080604001906002806020026040519081016040528092919082600260200280828437600081840152601f19601f8201169050808301925050505050509192919290505050611664565b005b6108fb600480360360608110156107b757600080fd5b8101908080359060200190929190803590602001906401000000008111156107de57600080fd5b8201836020820111156107f057600080fd5b8035906020019184600183028401116401000000008311171561081257600080fd5b91908080601f016020809104026020016040519081016040528093929190818152602001838380828437600081840152601f19601f8201169050808301925050505050505091929192908035906020019064010000000081111561087557600080fd5b82018360208201111561088757600080fd5b803590602001918460018302840111640100000000831117156108a957600080fd5b91908080601f016020809104026020016040519081016040528093929190818152602001838380828437600081840152601f19601f8201169050808301925050505050505091929192905050506119e4565b005b6109496004803603604081101561091357600080fd5b81019080803573ffffffffffffffffffffffffffffffffffffffff169060200190929190803590602001909291905050506119e9565b604051808215151515815260200191505060405180910390f35b6109cf6004803603606081101561097957600080fd5b81019080803573ffffffffffffffffffffffffffffffffffffffff169060200190929190803573ffffffffffffffffffffffffffffffffffffffff16906020019092919080359060200190929190505050611bc7565b005b6109d9611be8565b604051808273ffffffffffffffffffffffffffffffffffffffff1673ffffffffffffffffffffffffffffffffffffffff16815260200191505060405180910390f35b610a4760048036036020811015610a3157600080fd5b8101908080359060200190929190505050611c11565b6040518082815260200191505060405180910390f35b610a8b60048036036020811015610a7357600080fd5b81019080803515159060200190929190505050611c49565b005b610ab960048036036020811015610aa357600080fd5b8101908080359060200190929190505050611e69565b604051808273ffffffffffffffffffffffffffffffffffffffff1673ffffffffffffffffffffffffffffffffffffffff16815260200191505060405180910390f35b610b3d60048036036020811015610b1157600080fd5b81019080803573ffffffffffffffffffffffffffffffffffffffff169060200190929190505050611f33565b6040518082815260200191505060405180910390f35b610b5b612027565b6040518080602001828103825283818151815260200191508051906020019080838360005b83811015610b9b578082015181840152602081019050610b80565b50505050905090810190601f168015610bc85780820380516001836020036101000a031916815260200191505b509250505060405180910390f35b610c2460048036036040811015610bec57600080fd5b81019080803573ffffffffffffffffffffffffffffffffffffffff1690602001909291908035151590602001909291905050506120c9565b005b610d2960048036036080811015610c3c57600080fd5b81019080803573ffffffffffffffffffffffffffffffffffffffff169060200190929190803573ffffffffffffffffffffffffffffffffffffffff1690602001909291908035906020019092919080359060200190640100000000811115610ca357600080fd5b820183602082011115610cb557600080fd5b80359060200191846001830284011164010000000083111715610cd757600080fd5b91908080601f016020809104026020016040519081016040528093929190818152602001838380828437600081840152601f19601f820116905080830192505050505050509192919290505050612251565b005b610d5760048036036020811015610d4157600080fd5b8101908080359060200190929190505050612279565b6040518080602001828103825283818151815260200191508051906020019080838360005b83811015610d97578082015181840152602081019050610d7c565b50505050905090810190601f168015610dc45780820380516001836020036101000a031916815260200191505b509250505060405180910390f35b610e3460048036036040811015610de857600080fd5b81019080803573ffffffffffffffffffffffffffffffffffffffff169060200190929190803573ffffffffffffffffffffffffffffffffffffffff1690602001909291905050506123ab565b604051808215151515815260200191505060405180910390f35b610e9060048036036020811015610e6457600080fd5b81019080803573ffffffffffffffffffffffffffffffffffffffff16906020019092919050505061243f565b005b6111366004803603610280811015610ea957600080fd5b8101908080604001906002806020026040519081016040528092919082600260200280828437600081840152601f19601f820116905080830192505050505050919291929080604001906002806020026040519081016040528092919082600260200280828437600081840152601f19601f82011690508083019250505050505091929192908060800190600280602002604051908101604052809291906000905b82821015610f9f578382604002016002806020026040519081016040528092919082600260200280828437600081840152601f19601f82011690508083019250505050505081526020019060010190610f4b565b50505050919291929080604001906002806020026040519081016040528092919082600260200280828437600081840152601f19601f820116905080830192505050505050919291929080604001906002806020026040519081016040528092919082600260200280828437600081840152601f19601f820116905080830192505050505050919291929080604001906002806020026040519081016040528092919082600260200280828437600081840152601f19601f820116905080830192505050505050919291929080604001906002806020026040519081016040528092919082600260200280828437600081840152601f19601f820116905080830192505050505050919291929080604001906002806020026040519081016040528092919082600260200280828437600081840152601f19601f820116905080830192505050505050919291929080604001906002806020026040519081016040528092919082600260200280828437600081840152601f19601f8201169050808301925050505050509192919290505050612622565b604051808215151515815260200191505060405180910390f35b600060016000837bffffffffffffffffffffffffffffffffffffffffffffffffffffffff19167bffffffffffffffffffffffffffffffffffffffffffffffffffffffff1916815260200190815260200160002060009054906101000a900460ff169050919050565b6060600f8054600181600116156101000203166002900480601f0160208091040260200160405190810160405280929190818152602001828054600181600116156101000203166002900480156112505780601f1061122557610100808354040283529160200191611250565b820191906000526020600020905b81548152906001019060200180831161123357829003601f168201915b5050505050905090565b6000611265826129db565b15156112d9576040517f08c379a00000000000000000000000000000000000000000000000000000000081526004018080602001828103825260168152602001807f54686520746f6b656e206973206e6f742076616c69640000000000000000000081525060200191505060405180910390fd5b6003600083815260200190815260200160002060009054906101000a900473ffffffffffffffffffffffffffffffffffffffff169050919050565b600061131f82611e69565b9050600073ffffffffffffffffffffffffffffffffffffffff168173ffffffffffffffffffffffffffffffffffffffff16141515156113a9576040517f08c379a000000000000000000000000000000000000000000000000000000000815260040180806020018281038252603181526020018061518b6031913960400191505060405180910390fd5b8073ffffffffffffffffffffffffffffffffffffffff163373ffffffffffffffffffffffffffffffffffffffff1614806113e957506113e881336123ab565b5b151561145d576040517f08c379a000000000000000000000000000000000000000000000000000000000815260040180806020018281038252601b8152602001807f526571756573746572206973206e6f7420417574686f72697a6564000000000081525060200191505060405180910390fd5b826003600084815260200190815260200160002060006101000a81548173ffffffffffffffffffffffffffffffffffffffff021916908373ffffffffffffffffffffffffffffffffffffffff160217905550818373ffffffffffffffffffffffffffffffffffffffff168273ffffffffffffffffffffffffffffffffffffffff167f8c5be1e5ebec7d5bd14f71427d1e84f3dd0314c0f7b2291e5b200ac8c7c3b92560405160405180910390a4505050565b6000600880549050905090565b6115263382612a4d565b151561159a576040517f08c379a000000000000000000000000000000000000000000000000000000000815260040180806020018281038252600e8152602001807f4e6f7220417574686f72697a656400000000000000000000000000000000000081525060200191505060405180910390fd5b6115a5838383612ae2565b505050565b6115e9828260006040519080825280601f01601f1916602001820160405280156115e35781602001600182028038833980820191505090505b506119e4565b5050565b60006115f883611f33565b8210151561160557600080fd5b600660008473ffffffffffffffffffffffffffffffffffffffff1673ffffffffffffffffffffffffffffffffffffffff1681526020019081526020016000208281548110151561165157fe5b9060005260206000200154905092915050565b6000898989898989898989604051602001808a600260200280838360005b8381101561169d578082015181840152602081019050611682565b5050505090500189600260200280838360005b838110156116cb5780820151818401526020810190506116b0565b505050509050018860026000925b8184101561171f5782846020020151600260200280838360005b8381101561170e5780820151818401526020810190506116f3565b5050505090500192600101926116d9565b9250505087600260200280838360005b8381101561174a57808201518184015260208101905061172f565b5050505090500186600260200280838360005b8381101561177857808201518184015260208101905061175d565b5050505090500185600260200280838360005b838110156117a657808201518184015260208101905061178b565b5050505090500184600260200280838360005b838110156117d45780820151818401526020810190506117b9565b5050505090500183600260200280838360005b838110156118025780820151818401526020810190506117e7565b5050505090500182600260200280838360005b83811015611830578082015181840152602081019050611815565b5050505090500199505050505050505050506040516020818303038152906040528051906020012090506001151561186f8b8b8b8b8b8b8b8b8b612622565b15151415156118e6576040517f08c379a00000000000000000000000000000000000000000000000000000000081526004018080602001828103825260168152602001807f70726f6f662076616c756520697320696e766c6169640000000000000000000081525060200191505060405180910390fd5b600073ffffffffffffffffffffffffffffffffffffffff166014600083815260200190815260200160002060010160009054906101000a900473ffffffffffffffffffffffffffffffffffffffff1673ffffffffffffffffffffffffffffffffffffffff161415156119c0576040517f08c379a00000000000000000000000000000000000000000000000000000000081526004018080602001828103825260188152602001807f736f6c7574696f6e20616c726561647920636c61696d6564000000000000000081525060200191505060405180910390fd5b6119cb8c8c83612b06565b6119d58c8c6119e9565b50505050505050505050505050565b505050565b60003373ffffffffffffffffffffffffffffffffffffffff166000809054906101000a900473ffffffffffffffffffffffffffffffffffffffff1673ffffffffffffffffffffffffffffffffffffffff161480611a935750600073ffffffffffffffffffffffffffffffffffffffff166000809054906101000a900473ffffffffffffffffffffffffffffffffffffffff1673ffffffffffffffffffffffffffffffffffffffff16145b1515611b07576040517f08c379a000000000000000000000000000000000000000000000000000000000815260040180806020018281038252601c8152602001807f43616c6c6572206973206e6f7420636f6e7472616374206f776e65720000000081525060200191505060405180910390fd5b60001515611b14836129db565b1515141515611b8b576040517f08c379a000000000000000000000000000000000000000000000000000000000815260040180806020018281038252601e8152602001807f546f6b656e206e756d62657220697320616c726561647920696e20757365000081525060200191505060405180910390fd5b611b958383612c1c565b611b9e82612c3d565b60011515611bab836129db565b15151415611bbc5760019050611bc1565b600090505b92915050565b611be38383836020604051908101604052806000815250612251565b505050565b60008060009054906101000a900473ffffffffffffffffffffffffffffffffffffffff16905090565b6000611c1b61150f565b82101515611c2857600080fd5b600882815481101515611c3757fe5b90600052602060002001549050919050565b3373ffffffffffffffffffffffffffffffffffffffff166000809054906101000a900473ffffffffffffffffffffffffffffffffffffffff1673ffffffffffffffffffffffffffffffffffffffff161480611cf15750600073ffffffffffffffffffffffffffffffffffffffff166000809054906101000a900473ffffffffffffffffffffffffffffffffffffffff1673ffffffffffffffffffffffffffffffffffffffff16145b1515611d65576040517f08c379a000000000000000000000000000000000000000000000000000000000815260040180806020018281038252601c8152602001807f43616c6c6572206973206e6f7420636f6e7472616374206f776e65720000000081525060200191505060405180910390fd5b80600060146101000a81548160ff021916908315150217905550600115158115151415611df4577f62e78cea01bee320cd4e420270b5ea74000d11b0c9f74754ebdbfc544b05a25833604051808273ffffffffffffffffffffffffffffffffffffffff1673ffffffffffffffffffffffffffffffffffffffff16815260200191505060405180910390a1611e66565b600015158115151415611e65577f5db9ee0a495bf2e6ff9c91a7834c1ba4fdd244a5e8aa4e537bd38aeae4b073aa33604051808273ffffffffffffffffffffffffffffffffffffffff1673ffffffffffffffffffffffffffffffffffffffff16815260200191505060405180910390a15b5b50565b6000806002600084815260200190815260200160002060009054906101000a900473ffffffffffffffffffffffffffffffffffffffff169050600073ffffffffffffffffffffffffffffffffffffffff168173ffffffffffffffffffffffffffffffffffffffff1614151515611f2a576040517f08c379a000000000000000000000000000000000000000000000000000000000815260040180806020018281038252603181526020018061518b6031913960400191505060405180910390fd5b80915050919050565b60008073ffffffffffffffffffffffffffffffffffffffff168273ffffffffffffffffffffffffffffffffffffffff1614151515611fd9576040517f08c379a000000000000000000000000000000000000000000000000000000000815260040180806020018281038252601b8152602001807f4f726967696e616c204164647265737320696e20696e76616c6964000000000081525060200191505060405180910390fd5b612020600460008473ffffffffffffffffffffffffffffffffffffffff1673ffffffffffffffffffffffffffffffffffffffff168152602001908152602001600020612d90565b9050919050565b606060108054600181600116156101000203166002900480601f0160208091040260200160405190810160405280929190818152602001828054600181600116156101000203166002900480156120bf5780601f10612094576101008083540402835291602001916120bf565b820191906000526020600020905b8154815290600101906020018083116120a257829003601f168201915b5050505050905090565b3373ffffffffffffffffffffffffffffffffffffffff168273ffffffffffffffffffffffffffffffffffffffff1614151515612150576040517f08c379a00000000000000000000000000000000000000000000000000000000081526004018080602001828103825260378152602001806151546037913960400191505060405180910390fd5b80600560003373ffffffffffffffffffffffffffffffffffffffff1673ffffffffffffffffffffffffffffffffffffffff16815260200190815260200160002060008473ffffffffffffffffffffffffffffffffffffffff1673ffffffffffffffffffffffffffffffffffffffff16815260200190815260200160002060006101000a81548160ff0219169083151502179055508173ffffffffffffffffffffffffffffffffffffffff163373ffffffffffffffffffffffffffffffffffffffff167f17307eab39ab6107e8899845ad3d59bd9653f200f220920489ca2b5937696c3183604051808215151515815260200191505060405180910390a35050565b61225c84848461151c565b61226884848484612d9e565b151561227357600080fd5b50505050565b6060612284826129db565b15156122f8576040517f08c379a00000000000000000000000000000000000000000000000000000000081526004018080602001828103825260198152602001807f546f6b656e206e756d626572206973206e6f742076616c69640000000000000081525060200191505060405180910390fd5b601260008381526020019081526020016000208054600181600116156101000203166002900480601f01602080910402602001604051908101604052809291908181526020018280546001816001161561010002031660029004801561239f5780601f106123745761010080835404028352916020019161239f565b820191906000526020600020905b81548152906001019060200180831161238257829003601f168201915b50505050509050919050565b6000600560008473ffffffffffffffffffffffffffffffffffffffff1673ffffffffffffffffffffffffffffffffffffffff16815260200190815260200160002060008373ffffffffffffffffffffffffffffffffffffffff1673ffffffffffffffffffffffffffffffffffffffff16815260200190815260200160002060009054906101000a900460ff16905092915050565b3373ffffffffffffffffffffffffffffffffffffffff166000809054906101000a900473ffffffffffffffffffffffffffffffffffffffff1673ffffffffffffffffffffffffffffffffffffffff1614806124e75750600073ffffffffffffffffffffffffffffffffffffffff166000809054906101000a900473ffffffffffffffffffffffffffffffffffffffff1673ffffffffffffffffffffffffffffffffffffffff16145b151561255b576040517f08c379a000000000000000000000000000000000000000000000000000000000815260040180806020018281038252601c8152602001807f43616c6c6572206973206e6f7420636f6e7472616374206f776e65720000000081525060200191505060405180910390fd5b806000806101000a81548173ffffffffffffffffffffffffffffffffffffffff021916908373ffffffffffffffffffffffffffffffffffffffff1602179055507fa2ea9883a321a3e97b8266c2b078bfeec6d50c711ed71f874a90d500ae2eaf366000809054906101000a900473ffffffffffffffffffffffffffffffffffffffff16604051808273ffffffffffffffffffffffffffffffffffffffff1673ffffffffffffffffffffffffffffffffffffffff16815260200191505060405180910390a150565b600061262c614e3d565b60408051908101604052808c600060028110151561264657fe5b602002015181526020018c600160028110151561265f57fe5b6020020151815250816000018190525060408051908101604052808b600060028110151561268957fe5b602002015181526020018b60016002811015156126a257fe5b60200201518152508160200181905250604080519081016040528060408051908101604052808c60006002811015156126d757fe5b602002015160006002811015156126ea57fe5b602002015181526020018c600060028110151561270357fe5b6020020151600160028110151561271657fe5b6020020151815250815260200160408051908101604052808c600160028110151561273d57fe5b6020020151600060028110151561275057fe5b602002015181526020018c600160028110151561276957fe5b6020020151600160028110151561277c57fe5b6020020151815250815250816040018190525060408051908101604052808960006002811015156127a957fe5b602002015181526020018960016002811015156127c257fe5b6020020151815250816060018190525060408051908101604052808860006002811015156127ec57fe5b6020020151815260200188600160028110151561280557fe5b60200201518152508160800181905250604080519081016040528087600060028110151561282f57fe5b6020020151815260200187600160028110151561284857fe5b60200201518152508160a00181905250604080519081016040528086600060028110151561287257fe5b6020020151815260200186600160028110151561288b57fe5b60200201518152508160e0018190525060408051908101604052808560006002811015156128b557fe5b602002015181526020018560016002811015156128ce57fe5b60200201518152508160c00181905250606060026040519080825280602002602001820160405280156129105781602001602082028038833980820191505090505b50905060008090505b600281101561295e57848160028110151561293057fe5b6020020151828281518110151561294357fe5b90602001906020020181815250508080600101915050612919565b50600061296b8284612fc1565b14156129c7577f3f3cfdb26fb5f9f1786ab4f1a1f9cd4c0b5e726cbdfc26e495261731aad44e396040518080602001828103825260228152602001806151326022913960400191505060405180910390a16001925050506129ce565b6000925050505b9998505050505050505050565b6000806002600084815260200190815260200160002060009054906101000a900473ffffffffffffffffffffffffffffffffffffffff169050600073ffffffffffffffffffffffffffffffffffffffff168173ffffffffffffffffffffffffffffffffffffffff161415915050919050565b600080612a5983611e69565b90508073ffffffffffffffffffffffffffffffffffffffff168473ffffffffffffffffffffffffffffffffffffffff161480612ac857508373ffffffffffffffffffffffffffffffffffffffff16612ab08461125a565b73ffffffffffffffffffffffffffffffffffffffff16145b80612ad95750612ad881856123ab565b5b91505092915050565b612aed838383613201565b612af7838261349a565b612b01828261363e565b505050565b612b0e614eb3565b60408051908101604052808481526020018573ffffffffffffffffffffffffffffffffffffffff16815250905080601460008481526020019081526020016000206000820151816000015560208201518160010160006101000a81548173ffffffffffffffffffffffffffffffffffffffff021916908373ffffffffffffffffffffffffffffffffffffffff1602179055509050507fdf979aafcb9bfe6cfcc0e91b1779da5cef9d68eede260e96d2af9c55b49d2b2b848484604051808473ffffffffffffffffffffffffffffffffffffffff1673ffffffffffffffffffffffffffffffffffffffff168152602001838152602001828152602001935050505060405180910390a150505050565b612c268282613705565b612c30828261363e565b612c3981613921565b5050565b612c46816129db565b1515612cba576040517f08c379a00000000000000000000000000000000000000000000000000000000081526004018080602001828103825260198152602001807f546f6b656e206e756d626572206973206e6f742076616c69640000000000000081525060200191505060405180910390fd5b612d6660118054600181600116156101000203166002900480601f016020809104026020016040519081016040528092919081815260200182805460018160011615610100020316600290048015612d535780601f10612d2857610100808354040283529160200191612d53565b820191906000526020600020905b815481529060010190602001808311612d3657829003601f168201915b5050505050612d618361396d565b613ac6565b601260008381526020019081526020016000209080519060200190612d8c929190614ee3565b5050565b600081600001549050919050565b6000612dbf8473ffffffffffffffffffffffffffffffffffffffff16613b0d565b1515612dce5760019050612fb9565b60008473ffffffffffffffffffffffffffffffffffffffff1663150b7a02338887876040518563ffffffff167c0100000000000000000000000000000000000000000000000000000000028152600401808573ffffffffffffffffffffffffffffffffffffffff1673ffffffffffffffffffffffffffffffffffffffff1681526020018473ffffffffffffffffffffffffffffffffffffffff1673ffffffffffffffffffffffffffffffffffffffff16815260200183815260200180602001828103825283818151815260200191508051906020019080838360005b83811015612ec5578082015181840152602081019050612eaa565b50505050905090810190601f168015612ef25780820380516001836020036101000a031916815260200191505b5095505050505050602060405180830381600087803b158015612f1457600080fd5b505af1158015612f28573d6000803e3d6000fd5b505050506040513d6020811015612f3e57600080fd5b8101908080519060200190929190505050905063150b7a027c0100000000000000000000000000000000000000000000000000000000027bffffffffffffffffffffffffffffffffffffffffffffffffffffffff1916817bffffffffffffffffffffffffffffffffffffffffffffffffffffffff1916149150505b949350505050565b6000612fcb614f63565b612fd3613b20565b90508060e00151516001855101141515612fec57600080fd5b612ff4614fd3565b6040805190810160405280600081526020016000815250905060008090505b8551811015613073576130648261305f8560e001516001850181518110151561303857fe5b90602001906020020151898581518110151561305057fe5b90602001906020020151614161565b6141fd565b91508080600101915050613013565b5061309a818360e00151600081518110151561308b57fe5b906020019060200201516141fd565b90506130c3846000015183600001516130b687602001516142ba565b6130be614356565b614420565b15156130d4576001925050506131fb565b6130fb826020015185604001516130ee87606001516142ba565b6130f6614356565b614420565b151561310c576002925050506131fb565b613133846080015183604001516131268760a001516142ba565b61312e614356565b614420565b1515613144576003925050506131fb565b6131908460c00151836060015161317461316f8561316a8a600001518b608001516141fd565b6141fd565b6142ba565b8560a0015161318687608001516142ba565b896040015161452c565b15156131a1576004925050506131fb565b6131e36131b28286600001516141fd565b85604001516131c48760e001516142ba565b8560c001516131d689608001516142ba565b6131de614356565b61452c565b15156131f4576005925050506131fb565b6000925050505b92915050565b8273ffffffffffffffffffffffffffffffffffffffff1661322182611e69565b73ffffffffffffffffffffffffffffffffffffffff161415156132ac576040517f08c379a000000000000000000000000000000000000000000000000000000000815260040180806020018281038252601a8152602001807f726571756573746f72206973206e6f7420746865206f776e657200000000000081525060200191505060405180910390fd5b600073ffffffffffffffffffffffffffffffffffffffff168273ffffffffffffffffffffffffffffffffffffffff1614151515613351576040517f08c379a00000000000000000000000000000000000000000000000000000000081526004018080602001828103825260188152602001807f41646472657373206d7573742062652061737369676e6564000000000000000081525060200191505060405180910390fd5b61335a81614674565b6133a1600460008573ffffffffffffffffffffffffffffffffffffffff1673ffffffffffffffffffffffffffffffffffffffff168152602001908152602001600020614734565b6133e8600460008473ffffffffffffffffffffffffffffffffffffffff1673ffffffffffffffffffffffffffffffffffffffff168152602001908152602001600020614757565b816002600083815260200190815260200160002060006101000a81548173ffffffffffffffffffffffffffffffffffffffff021916908373ffffffffffffffffffffffffffffffffffffffff160217905550808273ffffffffffffffffffffffffffffffffffffffff168473ffffffffffffffffffffffffffffffffffffffff167fddf252ad1be2c89b69c2b068fc378daa952ba7f163c4a11628f55a4df523b3ef60405160405180910390a4505050565b60006134f26001600660008673ffffffffffffffffffffffffffffffffffffffff1673ffffffffffffffffffffffffffffffffffffffff1681526020019081526020016000208054905061476d90919063ffffffff16565b905060006007600084815260200190815260200160002054905081811415156135e5576000600660008673ffffffffffffffffffffffffffffffffffffffff1673ffffffffffffffffffffffffffffffffffffffff1681526020019081526020016000208381548110151561356357fe5b9060005260206000200154905080600660008773ffffffffffffffffffffffffffffffffffffffff1673ffffffffffffffffffffffffffffffffffffffff168152602001908152602001600020838154811015156135bd57fe5b9060005260206000200181905550816007600083815260200190815260200160002081905550505b600660008573ffffffffffffffffffffffffffffffffffffffff1673ffffffffffffffffffffffffffffffffffffffff1681526020019081526020016000208054809190600190036136379190614fed565b5050505050565b600660008373ffffffffffffffffffffffffffffffffffffffff1673ffffffffffffffffffffffffffffffffffffffff168152602001908152602001600020805490506007600083815260200190815260200160002081905550600660008373ffffffffffffffffffffffffffffffffffffffff1673ffffffffffffffffffffffffffffffffffffffff1681526020019081526020016000208190806001815401808255809150509060018203906000526020600020016000909192909190915055505050565b600073ffffffffffffffffffffffffffffffffffffffff168273ffffffffffffffffffffffffffffffffffffffff16141515156137aa576040517f08c379a00000000000000000000000000000000000000000000000000000000081526004018080602001828103825260188152602001807f41646472657373206d7573742062652061737369676e6564000000000000000081525060200191505060405180910390fd5b6137b3816129db565b151515613828576040517f08c379a00000000000000000000000000000000000000000000000000000000081526004018080602001828103825260178152602001807f546f6b656e20697320616c726561647920696e2075736500000000000000000081525060200191505060405180910390fd5b816002600083815260200190815260200160002060006101000a81548173ffffffffffffffffffffffffffffffffffffffff021916908373ffffffffffffffffffffffffffffffffffffffff1602179055506138c1600460008473ffffffffffffffffffffffffffffffffffffffff1673ffffffffffffffffffffffffffffffffffffffff168152602001908152602001600020614757565b808273ffffffffffffffffffffffffffffffffffffffff16600073ffffffffffffffffffffffffffffffffffffffff167fddf252ad1be2c89b69c2b068fc378daa952ba7f163c4a11628f55a4df523b3ef60405160405180910390a45050565b6008805490506009600083815260200190815260200160002081905550600881908060018154018082558091505090600182039060005260206000200160009091929091909150555050565b606060008214156139b5576040805190810160405280600181526020017f30000000000000000000000000000000000000000000000000000000000000008152509050613ac1565b600082905060005b6000821415156139e3578080600101915050600a828115156139db57fe5b0491506139bd565b6060816040519080825280601f01601f191660200182016040528015613a185781602001600182028038833980820191505090505b50905060006001830390505b600086141515613ab957600a86811515613a3a57fe5b066030017f010000000000000000000000000000000000000000000000000000000000000002828280600190039350815181101515613a7557fe5b9060200101907effffffffffffffffffffffffffffffffffffffffffffffffffffffffffffff1916908160001a905350600a86811515613ab157fe5b049550613a24565b819450505050505b919050565b6060613b05838360206040519081016040528060008152506020604051908101604052806000815250602060405190810160405280600081525061478f565b905092915050565b600080823b905060008111915050919050565b613b28614f63565b604080519081016040528060408051908101604052807f10619af6be1d27e09d302da2d926e3597b79831403be28daa351bd72842a68e181526020017f0587587a6162789e4a6a35001eb799446d308ffe21007eba726d0dce86c8da01815250815260200160408051908101604052807f1434b9a8987684538ef70917f010448a47548e04ae4e7fd5f30152b20f4e781081526020017f0f2b79960a750022480b82164928afb2e619f597bd8ad2564d8eb9f4de869912815250815250816000018190525060408051908101604052807f2683146d0c26221ff610eca0962989fba8771cc0d0cc866a2b4cc246fc6bc6ab81526020017f1aad2c66f9e0c3f0bcf2b4c04fbc2ff957033f4d57ee495fae99f826178fc1e18152508160200181905250604080519081016040528060408051908101604052807f2b3e1490d4849e77d3398ebdaecebe7cc8eb7d8d238564dee196974cf07b79ff81526020017f261bb5ffc13b9b696784be91f44018c1a3e137dc66f970bd6a2e2c95b0429840815250815260200160408051908101604052807f28461abe4aa6ce168961e21e541b15d5fd63ae6b460495a0bce9b65d1c44b13f81526020017f01254f0210694ad679c0315b393e1e9508f4010445c8289ca63c21b52676baec8152508152508160400181905250604080519081016040528060408051908101604052807f1e0c571e41df7c603233ecaac98f77829395a52cbfa3f271d419773bbfdc6fa181526020017f237876ae37231a5e94e603e03543d94771df12c531e151068694f4e530b8f14f815250815260200160408051908101604052807f1821e849e1bfc5601a0627f8fd897aba8bc99c01ece81d4d7a63380e3c1a2d1881526020017f265591c8c07e32cbd681094eef277a9594e4df6e0ca5794f9454892a5c2bb53e815250815250816060018190525060408051908101604052807f0ca573a6b95efc5c52a2ffec47004fee7726f8082a5afd1101a8474c7a8c1b9c81526020017f1161eff7281989be17e424f49f4beab956bb56acc5c8d06b7ca33e3ef65c13208152508160800181905250604080519081016040528060408051908101604052807f13538cb32263f307c0ad6fee75105879ad145888aace444fb98e987cfcc1157681526020017f2fbc1d36512bd1bbc161aed75eef6d7e5b20a51c3e73f71d9f43faf453dd829c815250815260200160408051908101604052807f1eddbfc4d0eb34d16af12c69e7c1add40d61f79f41a59906f00335b429be885081526020017f15c2a96c54ef9a9519c3e387966f49efc415f60be2a5b7489d05d81a50210acc8152508152508160a00181905250604080519081016040528060408051908101604052807f20e15eb45ab419b61783be78f8a07e6a8c52b5260ad21ee2ce396274de2df14281526020017f1842ed8f14fa2b61645ddb53992fcc3502813e0eba8ec2df14a6474082993e55815250815260200160408051908101604052807f1fa3799724f45df419c5bf28a7052262caa04d07d27dcc9f626eb54422b2d77481526020017f2b3a626466874f38af00d0510a8493df43c7df6132caac48356b7ac12644564a8152508152508160c001819052506003604051908082528060200260200182016040528015613ff657816020015b613fe3615019565b815260200190600190039081613fdb5790505b508160e0018190525060408051908101604052807f10735add9d7e1e295d929000755baffeb0b961e7e510476f0efc2aa275afe6ea81526020017f220a23e5bad4ef7205396185e820a9f9a78f02bd91b2295bd504ed9c7d3bfae78152508160e00151600081518110151561406757fe5b9060200190602002018190525060408051908101604052807f161e0b3dc4784538d7785ee90b895d2af73675c0583bac1b118f466c274f635c81526020017f071d7de2f4cdacf6f35a1ba351b4debd6a093bfc5a53f64049ed79ca6e12284f8152508160e0015160018151811015156140dc57fe5b9060200190602002018190525060408051908101604052807f13120545a87129686d91f8e1e153e24c05565050b0315e26d5339016b26e96c081526020017f0a494b71a126ca137b41ce4ce759c067fb519254ffeaa96276555337735dd9ec8152508160e00151600281518110151561415157fe5b9060200190602002018190525090565b614169614fd3565b614171615033565b836000015181600060038110151561418557fe5b60200201818152505083602001518160016003811015156141a257fe5b602002018181525050828160026003811015156141bb57fe5b6020020181815250506000606083608084600060076107d05a03f1905080600081146141e6576141e8565bfe5b508015156141f557600080fd5b505092915050565b614205614fd3565b61420d615056565b836000015181600060048110151561422157fe5b602002018181525050836020015181600160048110151561423e57fe5b602002018181525050826000015181600260048110151561425b57fe5b602002018181525050826020015181600360048110151561427857fe5b602002018181525050600060608360c084600060066107d05a03f1905080600081146142a3576142a5565bfe5b508015156142b257600080fd5b505092915050565b6142c2614fd3565b60007f30644e72e131a029b85045b68181585d97816a916871ca8d3c208c16d87cfd479050600083600001511480156142ff575060008360200151145b15614323576040805190810160405280600081526020016000815250915050614351565b60408051908101604052808460000151815260200182856020015181151561434757fe5b0683038152509150505b919050565b61435e615079565b604080519081016040528060408051908101604052807f198e9393920d483a7260bfb731fb5d25f1aa493335a9e71297e485b7aef312c281526020017f1800deef121f1e76426a00665e5c4479674322d4f75edadd46debd5cd992f6ed815250815260200160408051908101604052807f090689d0585ff075ec9e99ad690c3395bc4b313370b38ef355acdadcd122975b81526020017f12c85ea5db8c6deb4aab71808dcb408fe3d1e7690c43d37b4ce6cc0166fa7daa815250815250905090565b60006060600260405190808252806020026020018201604052801561445f57816020015b61444c615019565b8152602001906001900390816144445790505b5090506060600260405190808252806020026020018201604052801561449f57816020015b61448c6150a0565b8152602001906001900390816144845790505b509050868260008151811015156144b257fe5b90602001906020020181905250848260018151811015156144cf57fe5b90602001906020020181905250858160008151811015156144ec57fe5b906020019060200201819052508381600181518110151561450957fe5b906020019060200201819052506145208282614baa565b92505050949350505050565b60006060600360405190808252806020026020018201604052801561456b57816020015b614558615019565b8152602001906001900390816145505790505b509050606060036040519080825280602002602001820160405280156145ab57816020015b6145986150a0565b8152602001906001900390816145905790505b509050888260008151811015156145be57fe5b90602001906020020181905250868260018151811015156145db57fe5b90602001906020020181905250848260028151811015156145f857fe5b906020019060200201819052508781600081518110151561461557fe5b906020019060200201819052508581600181518110151561463257fe5b906020019060200201819052508381600281518110151561464f57fe5b906020019060200201819052506146668282614baa565b925050509695505050505050565b600073ffffffffffffffffffffffffffffffffffffffff166003600083815260200190815260200160002060009054906101000a900473ffffffffffffffffffffffffffffffffffffffff1673ffffffffffffffffffffffffffffffffffffffff161415156147315760006003600083815260200190815260200160002060006101000a81548173ffffffffffffffffffffffffffffffffffffffff021916908373ffffffffffffffffffffffffffffffffffffffff1602179055505b50565b61474c6001826000015461476d90919063ffffffff16565b816000018190555050565b6001816000016000828254019250508190555050565b600082821115151561477e57600080fd5b600082840390508091505092915050565b6060808690506060869050606086905060608690506060869050606081518351855187518951010101016040519080825280601f01601f1916602001820160405280156147eb5781602001600182028038833980820191505090505b509050606081905060008090506000809050600090505b88518110156148b557888181518110151561481957fe5b9060200101517f010000000000000000000000000000000000000000000000000000000000000090047f010000000000000000000000000000000000000000000000000000000000000002838380600101945081518110151561487857fe5b9060200101907effffffffffffffffffffffffffffffffffffffffffffffffffffffffffffff1916908160001a9053508080600101915050614802565b600090505b875181101561496d5787818151811015156148d157fe5b9060200101517f010000000000000000000000000000000000000000000000000000000000000090047f010000000000000000000000000000000000000000000000000000000000000002838380600101945081518110151561493057fe5b9060200101907effffffffffffffffffffffffffffffffffffffffffffffffffffffffffffff1916908160001a90535080806001019150506148ba565b600090505b8651811015614a2557868181518110151561498957fe5b9060200101517f010000000000000000000000000000000000000000000000000000000000000090047f01000000000000000000000000000000000000000000000000000000000000000283838060010194508151811015156149e857fe5b9060200101907effffffffffffffffffffffffffffffffffffffffffffffffffffffffffffff1916908160001a9053508080600101915050614972565b600090505b8551811015614add578581815181101515614a4157fe5b9060200101517f010000000000000000000000000000000000000000000000000000000000000090047f0100000000000000000000000000000000000000000000000000000000000000028383806001019450815181101515614aa057fe5b9060200101907effffffffffffffffffffffffffffffffffffffffffffffffffffffffffffff1916908160001a9053508080600101915050614a2a565b600090505b8451811015614b95578481815181101515614af957fe5b9060200101517f010000000000000000000000000000000000000000000000000000000000000090047f0100000000000000000000000000000000000000000000000000000000000000028383806001019450815181101515614b5857fe5b9060200101907effffffffffffffffffffffffffffffffffffffffffffffffffffffffffffff1916908160001a9053508080600101915050614ae2565b82995050505050505050505095945050505050565b600081518351141515614bbc57600080fd5b6000835190506000600682029050606081604051908082528060200260200182016040528015614bfb5781602001602082028038833980820191505090505b50905060008090505b83811015614dd9578681815181101515614c1a57fe5b90602001906020020151600001518260006006840201815181101515614c3c57fe5b90602001906020020181815250508681815181101515614c5857fe5b90602001906020020151602001518260016006840201815181101515614c7a57fe5b90602001906020020181815250508581815181101515614c9657fe5b90602001906020020151600001516000600281101515614cb257fe5b60200201518260026006840201815181101515614ccb57fe5b90602001906020020181815250508581815181101515614ce757fe5b90602001906020020151600001516001600281101515614d0357fe5b60200201518260036006840201815181101515614d1c57fe5b90602001906020020181815250508581815181101515614d3857fe5b90602001906020020151602001516000600281101515614d5457fe5b60200201518260046006840201815181101515614d6d57fe5b90602001906020020181815250508581815181101515614d8957fe5b90602001906020020151602001516001600281101515614da557fe5b60200201518260056006840201815181101515614dbe57fe5b90602001906020020181815250508080600101915050614c04565b50614de26150c7565b60006020826020860260208601600060086107d05a03f190508060008114614e0957614e0b565bfe5b50801515614e1857600080fd5b6000826000600181101515614e2957fe5b602002015114159550505050505092915050565b61024060405190810160405280614e52615019565b8152602001614e5f615019565b8152602001614e6c6150a0565b8152602001614e79615019565b8152602001614e86615019565b8152602001614e93615019565b8152602001614ea0615019565b8152602001614ead615019565b81525090565b604080519081016040528060008152602001600073ffffffffffffffffffffffffffffffffffffffff1681525090565b828054600181600116156101000203166002900490600052602060002090601f016020900481019282601f10614f2457805160ff1916838001178555614f52565b82800160010185558215614f52579182015b82811115614f51578251825591602001919060010190614f36565b5b509050614f5f91906150ea565b5090565b61032060405190810160405280614f786150a0565b8152602001614f85615019565b8152602001614f926150a0565b8152602001614f9f6150a0565b8152602001614fac615019565b8152602001614fb96150a0565b8152602001614fc66150a0565b8152602001606081525090565b604080519081016040528060008152602001600081525090565b8154818355818111156150145781836000526020600020918201910161501391906150ea565b5b505050565b604080519081016040528060008152602001600081525090565b606060405190810160405280600390602082028038833980820191505090505090565b608060405190810160405280600490602082028038833980820191505090505090565b60806040519081016040528061508d61510f565b815260200161509a61510f565b81525090565b6080604051908101604052806150b461510f565b81526020016150c161510f565b81525090565b602060405190810160405280600190602082028038833980820191505090505090565b61510c91905b808211156151085760008160009055506001016150f0565b5090565b90565b604080519081016040528060029060208202803883398082019150509050509056fe5472616e73616374696f6e207375636365737366756c6c792076657269666965642e74686520616464726573732069732063616e6e6f74206265207468652073616d6520617320746865206f7269676e616c20736f757263654f726967696e616c204164647265737320696e20696e76616c6964206f722079657420746f2062652061737369676e6564a165627a7a7230582022df2b71dbfd8a96a4311922219c0196f6495e9d451fa298d3aa67ab513f9adc002968747470733a2f2f73332d75732d776573742d322e616d617a6f6e6177732e636f6d2f756461636974792d626c6f636b636861696e2f63617073746f6e652f",
  "source": "pragma solidity ^0.5.2;\r\n\r\n// TODO define a contract call to the zokrates generated solidity contract <Verifier> or <renamedVerifier>\r\n\r\nimport './ERC721Mintable.sol';\r\nimport \"./Verifier.sol\";\r\n\r\n\r\n\r\n// TODO define another contract named SolnSquareVerifier that inherits from your ERC721Mintable class\r\n\r\ncontract SolnSquareVerifier is CustomERC721Token, Verifier {\r\n\r\n// TODO define a solutions struct that can hold an index & an address\r\n\r\n    struct Solution {\r\n        uint id;\r\n        address from;\r\n    }\r\n\r\n// TODO define an array of the above struct\r\n\r\n    Solution[] private solutionlist;\r\n\r\n// TODO define a mapping to store unique solutions submitted\r\n\r\n    mapping(bytes32 => Solution) solutions;\r\n\r\n// TODO Create an event to emit when a solution is added\r\n\r\n    event NewSolution(address from, uint id, bytes32 value);\r\n\r\n// TODO Create a function to add the solutions to the array and emit the event\r\n\r\n    function setSolution(address _from, uint _id, bytes32 _value) private {\r\n        Solution memory item = Solution(_id, _from);\r\n        solutions[_value] = item;\r\n        emit NewSolution(_from, _id, _value);\r\n    }\r\n\r\n// TODO Create a function to mint new NFT only after the solution has been verified\r\n//  - make sure the solution is unique (has not been used before)\r\n//  - make sure you handle metadata as well as tokenSuplly\r\n\r\n\r\n    function mintToken (address _from,\r\n            uint _tokenId,\r\n            uint[2] memory a,\r\n            uint[2] memory a_p,\r\n            uint[2][2] memory b,\r\n            uint[2] memory b_p,\r\n            uint[2] memory c,\r\n            uint[2] memory c_p,\r\n            uint[2] memory h,\r\n            uint[2] memory k,\r\n            uint[2] memory input) public\r\n            {\r\n        bytes32 _value = keccak256(abi.encodePacked(a, a_p, b, b_p, c, c_p, h, k, input));\r\n        require(verifyTx(a, a_p, b, b_p, c, c_p, h, k, input) == true, \"proof value is invlaid\");\r\n        require(solutions[_value].from == address(0), \"solution already claimed\");\r\n        setSolution(_from, _tokenId, _value);\r\n        super.mint(_from, _tokenId);\r\n    }\r\n\r\n\r\n}",
  "sourcePath": "C:/Users/ahalm/Blockchain-Capstone/contracts/SolnSquareVerifier.sol",
  "compiler": {
    "name": "solc",
    "version": "0.5.2+commit.1df8f40c.Emscripten.clang"
  },
  "schemaVersion": "3.0.8",
  "updatedAt": "2019-05-13T10:43:55.068Z",
  "devdoc": {
    "methods": {
      "isApprovedForAll(address,address)": {
        "details": "Tells whether an operator is approved by a given owner\r",
        "params": {
          "operator": "operator address which you want to query the approval of\r",
          "owner": "owner address which you want to query the approval of\r"
        },
        "return": "bool whether the given operator is approved by the given owner\r"
      },
      "setApprovalForAll(address,bool)": {
        "details": "Sets or unsets the approval of a given operator\r An operator is allowed to transfer all tokens of the sender on their behalf\r",
        "params": {
          "approved": "representing the status of the approval to be set\r",
          "to": "operator address to set the approval\r"
        }
      },
      "supportsInterface(bytes4)": {
        "details": "implement supportsInterface(bytes4) using a lookup table\r"
      },
      "tokenByIndex(uint256)": {
        "details": "Gets the token ID at a given index of all the tokens in this contract\r Reverts if the index is greater or equal to the total number of tokens\r",
        "params": {
          "index": "uint256 representing the index to be accessed of the tokens list\r"
        },
        "return": "uint256 token ID at the given index of the tokens list\r"
      },
      "tokenOfOwnerByIndex(address,uint256)": {
        "details": "Gets the token ID at a given index of the tokens list of the requested owner\r",
        "params": {
          "index": "uint256 representing the index to be accessed of the requested tokens list\r",
          "owner": "address owning the tokens list to be accessed\r"
        },
        "return": "uint256 token ID at the given index of the tokens list owned by the requested address\r"
      },
      "totalSupply()": {
        "details": "Gets the total amount of tokens stored by the contract\r",
        "return": "uint256 representing the total amount of tokens\r"
      }
    }
  },
  "userdoc": {
    "methods": {}
  }
}